{
  "contractName": "Dex",
  "abi": [
    {
      "anonymous": false,
      "inputs": [
        {
          "indexed": true,
          "internalType": "address",
          "name": "previousOwner",
          "type": "address"
        },
        {
          "indexed": true,
          "internalType": "address",
          "name": "newOwner",
          "type": "address"
        }
      ],
      "name": "OwnershipTransferred",
      "type": "event"
    },
    {
      "inputs": [
        {
          "internalType": "uint256",
          "name": "",
          "type": "uint256"
        }
      ],
      "name": "TokenList",
      "outputs": [
        {
          "internalType": "bytes32",
          "name": "",
          "type": "bytes32"
        }
      ],
      "stateMutability": "view",
      "type": "function",
      "constant": true
    },
    {
      "inputs": [
        {
          "internalType": "bytes32",
          "name": "ticker",
          "type": "bytes32"
        },
        {
          "internalType": "address",
          "name": "tokenAddress",
          "type": "address"
        }
      ],
      "name": "addToken",
      "outputs": [],
      "stateMutability": "nonpayable",
      "type": "function"
    },
    {
      "inputs": [
        {
          "internalType": "address",
          "name": "",
          "type": "address"
        },
        {
          "internalType": "bytes32",
          "name": "",
          "type": "bytes32"
        }
      ],
      "name": "balances",
      "outputs": [
        {
          "internalType": "uint256",
          "name": "",
          "type": "uint256"
        }
      ],
      "stateMutability": "view",
      "type": "function",
      "constant": true
    },
    {
      "inputs": [
        {
          "internalType": "uint256",
          "name": "amount",
          "type": "uint256"
        },
        {
          "internalType": "bytes32",
          "name": "ticker",
          "type": "bytes32"
        }
      ],
      "name": "deposit",
      "outputs": [],
      "stateMutability": "nonpayable",
      "type": "function"
    },
    {
      "inputs": [],
      "name": "depositEth",
      "outputs": [],
      "stateMutability": "payable",
      "type": "function",
      "payable": true
    },
    {
      "inputs": [],
      "name": "nextOrderID",
      "outputs": [
        {
          "internalType": "uint256",
          "name": "",
          "type": "uint256"
        }
      ],
      "stateMutability": "view",
      "type": "function",
      "constant": true
    },
    {
      "inputs": [],
      "name": "owner",
      "outputs": [
        {
          "internalType": "address",
          "name": "",
          "type": "address"
        }
      ],
      "stateMutability": "view",
      "type": "function",
      "constant": true
    },
    {
      "inputs": [],
      "name": "renounceOwnership",
      "outputs": [],
      "stateMutability": "nonpayable",
      "type": "function"
    },
    {
      "inputs": [
        {
          "internalType": "bytes32",
          "name": "",
          "type": "bytes32"
        }
      ],
      "name": "tokenMapping",
      "outputs": [
        {
          "internalType": "bytes32",
          "name": "ticker",
          "type": "bytes32"
        },
        {
          "internalType": "address",
          "name": "tokenAddress",
          "type": "address"
        }
      ],
      "stateMutability": "view",
      "type": "function",
      "constant": true
    },
    {
      "inputs": [
        {
          "internalType": "address",
          "name": "newOwner",
          "type": "address"
        }
      ],
      "name": "transferOwnership",
      "outputs": [],
      "stateMutability": "nonpayable",
      "type": "function"
    },
    {
      "inputs": [
        {
          "internalType": "uint256",
          "name": "amount",
          "type": "uint256"
        },
        {
          "internalType": "bytes32",
          "name": "ticker",
          "type": "bytes32"
        }
      ],
      "name": "withdraw",
      "outputs": [],
      "stateMutability": "nonpayable",
      "type": "function"
    },
    {
      "inputs": [
        {
          "internalType": "uint256",
          "name": "amount",
          "type": "uint256"
        }
      ],
      "name": "withdrawEth",
      "outputs": [],
      "stateMutability": "nonpayable",
      "type": "function"
    },
    {
      "inputs": [],
      "name": "getTokenList",
      "outputs": [
        {
          "internalType": "uint256",
          "name": "",
          "type": "uint256"
        }
      ],
      "stateMutability": "view",
      "type": "function",
      "constant": true
    },
    {
      "inputs": [
        {
          "internalType": "bytes32",
          "name": "ticker",
          "type": "bytes32"
        },
        {
          "internalType": "enum Dex.Side",
          "name": "side",
          "type": "uint8"
        }
      ],
      "name": "getOrderBook",
      "outputs": [
        {
          "components": [
            {
              "internalType": "uint256",
              "name": "id",
              "type": "uint256"
            },
            {
              "internalType": "address",
              "name": "trader",
              "type": "address"
            },
            {
              "internalType": "enum Dex.Side",
              "name": "side",
              "type": "uint8"
            },
            {
              "internalType": "bytes32",
              "name": "ticker",
              "type": "bytes32"
            },
            {
              "internalType": "uint256",
              "name": "amount",
              "type": "uint256"
            },
            {
              "internalType": "uint256",
              "name": "price",
              "type": "uint256"
            },
            {
              "internalType": "uint256",
              "name": "filled",
              "type": "uint256"
            }
          ],
          "internalType": "struct Dex.Order[]",
          "name": "",
          "type": "tuple[]"
        }
      ],
      "stateMutability": "view",
      "type": "function",
      "constant": true
    },
    {
      "inputs": [
        {
          "internalType": "enum Dex.Side",
          "name": "side",
          "type": "uint8"
        },
        {
          "internalType": "bytes32",
          "name": "ticker",
          "type": "bytes32"
        },
        {
          "internalType": "uint256",
          "name": "amount",
          "type": "uint256"
        },
        {
          "internalType": "uint256",
          "name": "price",
          "type": "uint256"
        }
      ],
      "name": "createLimitOrder",
      "outputs": [],
      "stateMutability": "nonpayable",
      "type": "function"
    },
    {
      "inputs": [
        {
          "internalType": "enum Dex.Side",
          "name": "side",
          "type": "uint8"
        },
        {
          "internalType": "bytes32",
          "name": "ticker",
          "type": "bytes32"
        },
        {
          "internalType": "uint256",
          "name": "amount",
          "type": "uint256"
        }
      ],
      "name": "createMarketOrder",
      "outputs": [],
      "stateMutability": "nonpayable",
      "type": "function"
    }
  ],
  "bytecode": "0x608060405260006004553480156200001657600080fd5b50620000376200002b6200003d60201b60201c565b6200004560201b60201c565b62000109565b600033905090565b60008060009054906101000a900473ffffffffffffffffffffffffffffffffffffffff169050816000806101000a81548173ffffffffffffffffffffffffffffffffffffffff021916908373ffffffffffffffffffffffffffffffffffffffff1602179055508173ffffffffffffffffffffffffffffffffffffffff168173ffffffffffffffffffffffffffffffffffffffff167f8be0079c531659141344cd1fd0a4f28419497f9722a3daafe3b4186f6b6457e060405160405180910390a35050565b613f1a80620001196000396000f3fe6080604052600436106100f35760003560e01c80639776aacf1161008a578063c311d04911610059578063c311d04914610308578063c9630cb014610331578063f2fde38b1461035a578063f47a0acc14610383576100f3565b80639776aacf1461025057806399ec2f1c14610279578063a8d2021a146102a2578063ba58ea68146102cb576100f3565b8063667cb4ba116100c6578063667cb4ba146101a75780636f3b62f9146101e5578063715018a61461020e5780638da5cb5b14610225576100f3565b806303a53595146100f85780631f14df6914610135578063273cbaa014610172578063439370b11461019d575b600080fd5b34801561010457600080fd5b5061011f600480360381019061011a91906135fa565b6103ae565b60405161012c9190613aa4565b60405180910390f35b34801561014157600080fd5b5061015c60048036038101906101579190613442565b6103d2565b6040516101699190613bc8565b60405180910390f35b34801561017e57600080fd5b506101876103f7565b6040516101949190613bc8565b60405180910390f35b6101a5610404565b005b3480156101b357600080fd5b506101ce60048036038101906101c991906134a7565b6104fd565b6040516101dc929190613abf565b60405180910390f35b3480156101f157600080fd5b5061020c60048036038101906102079190613597565b610541565b005b34801561021a57600080fd5b50610223611422565b005b34801561023157600080fd5b5061023a6114aa565b6040516102479190613a07565b60405180910390f35b34801561025c57600080fd5b50610277600480360381019061027291906134d0565b6114d3565b005b34801561028557600080fd5b506102a0600480360381019061029b9190613548565b61160e565b005b3480156102ae57600080fd5b506102c960048036038101906102c49190613623565b6128e0565b005b3480156102d757600080fd5b506102f260048036038101906102ed919061350c565b612b9a565b6040516102ff9190613a82565b60405180910390f35b34801561031457600080fd5b5061032f600480360381019061032a91906135fa565b612d65565b005b34801561033d57600080fd5b5061035860048036038101906103539190613623565b612f7b565b005b34801561036657600080fd5b50610381600480360381019061037c9190613419565b6131a4565b005b34801561038f57600080fd5b5061039861329c565b6040516103a59190613bc8565b60405180910390f35b600281815481106103be57600080fd5b906000526020600020016000915090505481565b6003602052816000526040600020602052806000526040600020600091509150505481565b6000600280549050905090565b61048734600360003373ffffffffffffffffffffffffffffffffffffffff1673ffffffffffffffffffffffffffffffffffffffff16815260200190815260200160002060007f45544800000000000000000000000000000000000000000000000000000000008152602001908152602001600020546132a290919063ffffffff16565b600360003373ffffffffffffffffffffffffffffffffffffffff1673ffffffffffffffffffffffffffffffffffffffff16815260200190815260200160002060007f4554480000000000000000000000000000000000000000000000000000000000815260200190815260200160002081905550565b60016020528060005260406000206000915090508060000154908060010160009054906101000a900473ffffffffffffffffffffffffffffffffffffffff16905082565b6000600181111561057b577f4e487b7100000000000000000000000000000000000000000000000000000000600052602160045260246000fd5b8460018111156105b4577f4e487b7100000000000000000000000000000000000000000000000000000000600052602160045260246000fd5b141561064e576105cd81836132b890919063ffffffff16565b600360003373ffffffffffffffffffffffffffffffffffffffff1673ffffffffffffffffffffffffffffffffffffffff16815260200190815260200160002060007f4554480000000000000000000000000000000000000000000000000000000000815260200190815260200160002054101561064957600080fd5b610725565b600180811115610687577f4e487b7100000000000000000000000000000000000000000000000000000000600052602160045260246000fd5b8460018111156106c0577f4e487b7100000000000000000000000000000000000000000000000000000000600052602160045260246000fd5b14156107245781600360003373ffffffffffffffffffffffffffffffffffffffff1673ffffffffffffffffffffffffffffffffffffffff168152602001908152602001600020600085815260200190815260200160002054101561072357600080fd5b5b5b6000600560008581526020019081526020016000206000866001811115610775577f4e487b7100000000000000000000000000000000000000000000000000000000600052602160045260246000fd5b81526020019081526020016000209050806040518060e0016040528060045481526020013373ffffffffffffffffffffffffffffffffffffffff1681526020018760018111156107ee577f4e487b7100000000000000000000000000000000000000000000000000000000600052602160045260246000fd5b8152602001868152602001858152602001848152602001600081525090806001815401808255809150506001900390600052602060002090600602016000909190919091506000820151816000015560208201518160010160006101000a81548173ffffffffffffffffffffffffffffffffffffffff021916908373ffffffffffffffffffffffffffffffffffffffff16021790555060408201518160010160146101000a81548160ff021916908360018111156108d5577f4e487b7100000000000000000000000000000000000000000000000000000000600052602160045260246000fd5b0217905550606082015181600201556080820151816003015560a0820151816004015560c08201518160050155505060008082805490501161091857600061092a565b600182805490506109299190613ce8565b5b905060006001811115610966577f4e487b7100000000000000000000000000000000000000000000000000000000600052602160045260246000fd5b86600181111561099f577f4e487b7100000000000000000000000000000000000000000000000000000000600052602160045260246000fd5b1415610e99575b6000811115610e94578181815481106109e8577f4e487b7100000000000000000000000000000000000000000000000000000000600052603260045260246000fd5b90600052602060002090600602016004015482600183610a089190613ce8565b81548110610a3f577f4e487b7100000000000000000000000000000000000000000000000000000000600052603260045260246000fd5b9060005260206000209060060201600401541115610a5c57610e94565b600082600183610a6c9190613ce8565b81548110610aa3577f4e487b7100000000000000000000000000000000000000000000000000000000600052603260045260246000fd5b90600052602060002090600602016040518060e0016040529081600082015481526020016001820160009054906101000a900473ffffffffffffffffffffffffffffffffffffffff1673ffffffffffffffffffffffffffffffffffffffff1673ffffffffffffffffffffffffffffffffffffffff1681526020016001820160149054906101000a900460ff166001811115610b67577f4e487b7100000000000000000000000000000000000000000000000000000000600052602160045260246000fd5b6001811115610b9f577f4e487b7100000000000000000000000000000000000000000000000000000000600052602160045260246000fd5b81526020016002820154815260200160038201548152602001600482015481526020016005820154815250509050828281548110610c06577f4e487b7100000000000000000000000000000000000000000000000000000000600052603260045260246000fd5b906000526020600020906006020183600184610c229190613ce8565b81548110610c59577f4e487b7100000000000000000000000000000000000000000000000000000000600052603260045260246000fd5b9060005260206000209060060201600082015481600001556001820160009054906101000a900473ffffffffffffffffffffffffffffffffffffffff168160010160006101000a81548173ffffffffffffffffffffffffffffffffffffffff021916908373ffffffffffffffffffffffffffffffffffffffff1602179055506001820160149054906101000a900460ff168160010160146101000a81548160ff02191690836001811115610d36577f4e487b7100000000000000000000000000000000000000000000000000000000600052602160045260246000fd5b02179055506002820154816002015560038201548160030155600482015481600401556005820154816005015590505080838381548110610da0577f4e487b7100000000000000000000000000000000000000000000000000000000600052603260045260246000fd5b90600052602060002090600602016000820151816000015560208201518160010160006101000a81548173ffffffffffffffffffffffffffffffffffffffff021916908373ffffffffffffffffffffffffffffffffffffffff16021790555060408201518160010160146101000a81548160ff02191690836001811115610e50577f4e487b7100000000000000000000000000000000000000000000000000000000600052602160045260246000fd5b0217905550606082015181600201556080820151816003015560a0820151816004015560c082015181600501559050508180610e8b90613d93565b925050506109a6565b611402565b600180811115610ed2577f4e487b7100000000000000000000000000000000000000000000000000000000600052602160045260246000fd5b866001811115610f0b577f4e487b7100000000000000000000000000000000000000000000000000000000600052602160045260246000fd5b1415611401575b600081111561140057818181548110610f54577f4e487b7100000000000000000000000000000000000000000000000000000000600052603260045260246000fd5b90600052602060002090600602016004015482600183610f749190613ce8565b81548110610fab577f4e487b7100000000000000000000000000000000000000000000000000000000600052603260045260246000fd5b9060005260206000209060060201600401541015610fc857611400565b600082600183610fd89190613ce8565b8154811061100f577f4e487b7100000000000000000000000000000000000000000000000000000000600052603260045260246000fd5b90600052602060002090600602016040518060e0016040529081600082015481526020016001820160009054906101000a900473ffffffffffffffffffffffffffffffffffffffff1673ffffffffffffffffffffffffffffffffffffffff1673ffffffffffffffffffffffffffffffffffffffff1681526020016001820160149054906101000a900460ff1660018111156110d3577f4e487b7100000000000000000000000000000000000000000000000000000000600052602160045260246000fd5b600181111561110b577f4e487b7100000000000000000000000000000000000000000000000000000000600052602160045260246000fd5b81526020016002820154815260200160038201548152602001600482015481526020016005820154815250509050828281548110611172577f4e487b7100000000000000000000000000000000000000000000000000000000600052603260045260246000fd5b90600052602060002090600602018360018461118e9190613ce8565b815481106111c5577f4e487b7100000000000000000000000000000000000000000000000000000000600052603260045260246000fd5b9060005260206000209060060201600082015481600001556001820160009054906101000a900473ffffffffffffffffffffffffffffffffffffffff168160010160006101000a81548173ffffffffffffffffffffffffffffffffffffffff021916908373ffffffffffffffffffffffffffffffffffffffff1602179055506001820160149054906101000a900460ff168160010160146101000a81548160ff021916908360018111156112a2577f4e487b7100000000000000000000000000000000000000000000000000000000600052602160045260246000fd5b0217905550600282015481600201556003820154816003015560048201548160040155600582015481600501559050508083838154811061130c577f4e487b7100000000000000000000000000000000000000000000000000000000600052603260045260246000fd5b90600052602060002090600602016000820151816000015560208201518160010160006101000a81548173ffffffffffffffffffffffffffffffffffffffff021916908373ffffffffffffffffffffffffffffffffffffffff16021790555060408201518160010160146101000a81548160ff021916908360018111156113bc577f4e487b7100000000000000000000000000000000000000000000000000000000600052602160045260246000fd5b0217905550606082015181600201556080820151816003015560a0820151816004015560c0820151816005015590505081806113f790613d93565b92505050610f12565b5b5b6004600081548092919061141590613dbd565b9190505550505050505050565b61142a6132ce565b73ffffffffffffffffffffffffffffffffffffffff166114486114aa565b73ffffffffffffffffffffffffffffffffffffffff161461149e576040517f08c379a000000000000000000000000000000000000000000000000000000000815260040161149590613b48565b60405180910390fd5b6114a860006132d6565b565b60008060009054906101000a900473ffffffffffffffffffffffffffffffffffffffff16905090565b6114db6132ce565b73ffffffffffffffffffffffffffffffffffffffff166114f96114aa565b73ffffffffffffffffffffffffffffffffffffffff161461154f576040517f08c379a000000000000000000000000000000000000000000000000000000000815260040161154690613b48565b60405180910390fd5b60405180604001604052808381526020018273ffffffffffffffffffffffffffffffffffffffff16815250600160008481526020019081526020016000206000820151816000015560208201518160010160006101000a81548173ffffffffffffffffffffffffffffffffffffffff021916908373ffffffffffffffffffffffffffffffffffffffff16021790555090505060028290806001815401808255809150506001900390600052602060002001600090919091909150555050565b600180811115611647577f4e487b7100000000000000000000000000000000000000000000000000000000600052602160045260246000fd5b836001811115611680577f4e487b7100000000000000000000000000000000000000000000000000000000600052602160045260246000fd5b141561171a5780600360003373ffffffffffffffffffffffffffffffffffffffff1673ffffffffffffffffffffffffffffffffffffffff1681526020019081526020016000206000848152602001908152602001600020541015611719576040517f08c379a000000000000000000000000000000000000000000000000000000000815260040161171090613b68565b60405180910390fd5b5b6000806001811115611755577f4e487b7100000000000000000000000000000000000000000000000000000000600052602160045260246000fd5b84600181111561178e577f4e487b7100000000000000000000000000000000000000000000000000000000600052602160045260246000fd5b141561179d57600190506117a2565b600090505b600060056000858152602001908152602001600020600083815260200190815260200160002090506000805b8280549050811080156117e057508482105b156125a85760006117fa838761339a90919063ffffffff16565b905060006118a585848154811061183a577f4e487b7100000000000000000000000000000000000000000000000000000000600052603260045260246000fd5b906000526020600020906006020160050154868581548110611885577f4e487b7100000000000000000000000000000000000000000000000000000000600052603260045260246000fd5b90600052602060002090600602016003015461339a90919063ffffffff16565b90506000828211156118b9578290506118bd565b8190505b6118d081866132a290919063ffffffff16565b945061192f8187868154811061190f577f4e487b7100000000000000000000000000000000000000000000000000000000600052603260045260246000fd5b9060005260206000209060060201600501546132a290919063ffffffff16565b868581548110611968577f4e487b7100000000000000000000000000000000000000000000000000000000600052603260045260246000fd5b90600052602060002090600602016005018190555060006119dc8786815481106119bb577f4e487b7100000000000000000000000000000000000000000000000000000000600052603260045260246000fd5b906000526020600020906006020160040154836132b890919063ffffffff16565b905060006001811115611a18577f4e487b7100000000000000000000000000000000000000000000000000000000600052602160045260246000fd5b8b6001811115611a51577f4e487b7100000000000000000000000000000000000000000000000000000000600052602160045260246000fd5b14156120135780600360003373ffffffffffffffffffffffffffffffffffffffff1673ffffffffffffffffffffffffffffffffffffffff16815260200190815260200160002060007f45544800000000000000000000000000000000000000000000000000000000008152602001908152602001600020541015611b0a576040517f08c379a0000000000000000000000000000000000000000000000000000000008152600401611b0190613ba8565b60405180910390fd5b611b6d82600360003373ffffffffffffffffffffffffffffffffffffffff1673ffffffffffffffffffffffffffffffffffffffff16815260200190815260200160002060008d8152602001908152602001600020546132a290919063ffffffff16565b600360003373ffffffffffffffffffffffffffffffffffffffff1673ffffffffffffffffffffffffffffffffffffffff16815260200190815260200160002060008c815260200190815260200160002081905550611c4481600360003373ffffffffffffffffffffffffffffffffffffffff1673ffffffffffffffffffffffffffffffffffffffff16815260200190815260200160002060007f455448000000000000000000000000000000000000000000000000000000000081526020019081526020016000205461339a90919063ffffffff16565b600360003373ffffffffffffffffffffffffffffffffffffffff1673ffffffffffffffffffffffffffffffffffffffff16815260200190815260200160002060007f4554480000000000000000000000000000000000000000000000000000000000815260200190815260200160002081905550611d8582600360008a8981548110611cf9577f4e487b7100000000000000000000000000000000000000000000000000000000600052603260045260246000fd5b906000526020600020906006020160010160009054906101000a900473ffffffffffffffffffffffffffffffffffffffff1673ffffffffffffffffffffffffffffffffffffffff1673ffffffffffffffffffffffffffffffffffffffff16815260200190815260200160002060008d81526020019081526020016000205461339a90919063ffffffff16565b60036000898881548110611dc2577f4e487b7100000000000000000000000000000000000000000000000000000000600052603260045260246000fd5b906000526020600020906006020160010160009054906101000a900473ffffffffffffffffffffffffffffffffffffffff1673ffffffffffffffffffffffffffffffffffffffff1673ffffffffffffffffffffffffffffffffffffffff16815260200190815260200160002060008c815260200190815260200160002081905550611f3081600360008a8981548110611e84577f4e487b7100000000000000000000000000000000000000000000000000000000600052603260045260246000fd5b906000526020600020906006020160010160009054906101000a900473ffffffffffffffffffffffffffffffffffffffff1673ffffffffffffffffffffffffffffffffffffffff1673ffffffffffffffffffffffffffffffffffffffff16815260200190815260200160002060007f45544800000000000000000000000000000000000000000000000000000000008152602001908152602001600020546132a290919063ffffffff16565b60036000898881548110611f6d577f4e487b7100000000000000000000000000000000000000000000000000000000600052603260045260246000fd5b906000526020600020906006020160010160009054906101000a900473ffffffffffffffffffffffffffffffffffffffff1673ffffffffffffffffffffffffffffffffffffffff1673ffffffffffffffffffffffffffffffffffffffff16815260200190815260200160002060007f4554480000000000000000000000000000000000000000000000000000000000815260200190815260200160002081905550612591565b60018081111561204c577f4e487b7100000000000000000000000000000000000000000000000000000000600052602160045260246000fd5b8b6001811115612085577f4e487b7100000000000000000000000000000000000000000000000000000000600052602160045260246000fd5b1415612590576120ee82600360003373ffffffffffffffffffffffffffffffffffffffff1673ffffffffffffffffffffffffffffffffffffffff16815260200190815260200160002060008d81526020019081526020016000205461339a90919063ffffffff16565b600360003373ffffffffffffffffffffffffffffffffffffffff1673ffffffffffffffffffffffffffffffffffffffff16815260200190815260200160002060008c8152602001908152602001600020819055506121c581600360003373ffffffffffffffffffffffffffffffffffffffff1673ffffffffffffffffffffffffffffffffffffffff16815260200190815260200160002060007f45544800000000000000000000000000000000000000000000000000000000008152602001908152602001600020546132a290919063ffffffff16565b600360003373ffffffffffffffffffffffffffffffffffffffff1673ffffffffffffffffffffffffffffffffffffffff16815260200190815260200160002060007f455448000000000000000000000000000000000000000000000000000000000081526020019081526020016000208190555061230682600360008a898154811061227a577f4e487b7100000000000000000000000000000000000000000000000000000000600052603260045260246000fd5b906000526020600020906006020160010160009054906101000a900473ffffffffffffffffffffffffffffffffffffffff1673ffffffffffffffffffffffffffffffffffffffff1673ffffffffffffffffffffffffffffffffffffffff16815260200190815260200160002060008d8152602001908152602001600020546132a290919063ffffffff16565b60036000898881548110612343577f4e487b7100000000000000000000000000000000000000000000000000000000600052603260045260246000fd5b906000526020600020906006020160010160009054906101000a900473ffffffffffffffffffffffffffffffffffffffff1673ffffffffffffffffffffffffffffffffffffffff1673ffffffffffffffffffffffffffffffffffffffff16815260200190815260200160002060008c8152602001908152602001600020819055506124b181600360008a8981548110612405577f4e487b7100000000000000000000000000000000000000000000000000000000600052603260045260246000fd5b906000526020600020906006020160010160009054906101000a900473ffffffffffffffffffffffffffffffffffffffff1673ffffffffffffffffffffffffffffffffffffffff1673ffffffffffffffffffffffffffffffffffffffff16815260200190815260200160002060007f455448000000000000000000000000000000000000000000000000000000000081526020019081526020016000205461339a90919063ffffffff16565b600360008988815481106124ee577f4e487b7100000000000000000000000000000000000000000000000000000000600052603260045260246000fd5b906000526020600020906006020160010160009054906101000a900473ffffffffffffffffffffffffffffffffffffffff1673ffffffffffffffffffffffffffffffffffffffff1673ffffffffffffffffffffffffffffffffffffffff16815260200190815260200160002060007f45544800000000000000000000000000000000000000000000000000000000008152602001908152602001600020819055505b5b5050505080806125a090613dbd565b9150506117ce565b505b600082805490501180156126535750816000815481106125f3577f4e487b7100000000000000000000000000000000000000000000000000000000600052603260045260246000fd5b9060005260206000209060060201600301548260008154811061263f577f4e487b7100000000000000000000000000000000000000000000000000000000600052603260045260246000fd5b906000526020600020906006020160050154145b156128d85760005b6001838054905061266c9190613ce8565b81101561281f57826001826126819190613c38565b815481106126b8577f4e487b7100000000000000000000000000000000000000000000000000000000600052603260045260246000fd5b90600052602060002090600602018382815481106126ff577f4e487b7100000000000000000000000000000000000000000000000000000000600052603260045260246000fd5b9060005260206000209060060201600082015481600001556001820160009054906101000a900473ffffffffffffffffffffffffffffffffffffffff168160010160006101000a81548173ffffffffffffffffffffffffffffffffffffffff021916908373ffffffffffffffffffffffffffffffffffffffff1602179055506001820160149054906101000a900460ff168160010160146101000a81548160ff021916908360018111156127dc577f4e487b7100000000000000000000000000000000000000000000000000000000600052602160045260246000fd5b021790555060028201548160020155600382015481600301556004820154816004015560058201548160050155905050808061281790613dbd565b91505061265b565b5081805480612857577f4e487b7100000000000000000000000000000000000000000000000000000000600052603160045260246000fd5b60019003818190600052602060002090600602016000808201600090556001820160006101000a81549073ffffffffffffffffffffffffffffffffffffffff02191690556001820160146101000a81549060ff02191690556002820160009055600382016000905560048201600090556005820160009055505090556125aa565b505050505050565b80600073ffffffffffffffffffffffffffffffffffffffff166001600083815260200190815260200160002060010160009054906101000a900473ffffffffffffffffffffffffffffffffffffffff1673ffffffffffffffffffffffffffffffffffffffff161415612987576040517f08c379a000000000000000000000000000000000000000000000000000000000815260040161297e90613b28565b60405180910390fd5b82600360003373ffffffffffffffffffffffffffffffffffffffff1673ffffffffffffffffffffffffffffffffffffffff1681526020019081526020016000206000848152602001908152602001600020541015612a1a576040517f08c379a0000000000000000000000000000000000000000000000000000000008152600401612a1190613b88565b60405180910390fd5b612a7d83600360003373ffffffffffffffffffffffffffffffffffffffff1673ffffffffffffffffffffffffffffffffffffffff16815260200190815260200160002060008581526020019081526020016000205461339a90919063ffffffff16565b600360003373ffffffffffffffffffffffffffffffffffffffff1673ffffffffffffffffffffffffffffffffffffffff1681526020019081526020016000206000848152602001908152602001600020819055506001600083815260200190815260200160002060010160009054906101000a900473ffffffffffffffffffffffffffffffffffffffff1673ffffffffffffffffffffffffffffffffffffffff1663a9059cbb33856040518363ffffffff1660e01b8152600401612b42929190613a59565b602060405180830381600087803b158015612b5c57600080fd5b505af1158015612b70573d6000803e3d6000fd5b505050506040513d601f19601f82011682018060405250810190612b94919061347e565b50505050565b6060600560008481526020019081526020016000206000836001811115612bea577f4e487b7100000000000000000000000000000000000000000000000000000000600052602160045260246000fd5b8152602001908152602001600020805480602002602001604051908101604052809291908181526020016000905b82821015612d5957838290600052602060002090600602016040518060e0016040529081600082015481526020016001820160009054906101000a900473ffffffffffffffffffffffffffffffffffffffff1673ffffffffffffffffffffffffffffffffffffffff1673ffffffffffffffffffffffffffffffffffffffff1681526020016001820160149054906101000a900460ff166001811115612ce6577f4e487b7100000000000000000000000000000000000000000000000000000000600052602160045260246000fd5b6001811115612d1e577f4e487b7100000000000000000000000000000000000000000000000000000000600052602160045260246000fd5b815260200160028201548152602001600382015481526020016004820154815260200160058201548152505081526020019060010190612c18565b50505050905092915050565b80600360003373ffffffffffffffffffffffffffffffffffffffff1673ffffffffffffffffffffffffffffffffffffffff16815260200190815260200160002060007f45544800000000000000000000000000000000000000000000000000000000008152602001908152602001600020541015612e18576040517f08c379a0000000000000000000000000000000000000000000000000000000008152600401612e0f90613b08565b60405180910390fd5b612e9b81600360003373ffffffffffffffffffffffffffffffffffffffff1673ffffffffffffffffffffffffffffffffffffffff16815260200190815260200160002060007f455448000000000000000000000000000000000000000000000000000000000081526020019081526020016000205461339a90919063ffffffff16565b600360003373ffffffffffffffffffffffffffffffffffffffff1673ffffffffffffffffffffffffffffffffffffffff16815260200190815260200160002060007f45544800000000000000000000000000000000000000000000000000000000008152602001908152602001600020819055503373ffffffffffffffffffffffffffffffffffffffff1681604051612f33906139f2565b60006040518083038185875af1925050503d8060008114612f70576040519150601f19603f3d011682016040523d82523d6000602084013e612f75565b606091505b50505050565b80600073ffffffffffffffffffffffffffffffffffffffff166001600083815260200190815260200160002060010160009054906101000a900473ffffffffffffffffffffffffffffffffffffffff1673ffffffffffffffffffffffffffffffffffffffff161415613022576040517f08c379a000000000000000000000000000000000000000000000000000000000815260040161301990613b28565b60405180910390fd5b6001600083815260200190815260200160002060010160009054906101000a900473ffffffffffffffffffffffffffffffffffffffff1673ffffffffffffffffffffffffffffffffffffffff166323b872dd3330866040518463ffffffff1660e01b815260040161309593929190613a22565b602060405180830381600087803b1580156130af57600080fd5b505af11580156130c3573d6000803e3d6000fd5b505050506040513d601f19601f820116820180604052508101906130e7919061347e565b5061314b83600360003373ffffffffffffffffffffffffffffffffffffffff1673ffffffffffffffffffffffffffffffffffffffff1681526020019081526020016000206000858152602001908152602001600020546132a290919063ffffffff16565b600360003373ffffffffffffffffffffffffffffffffffffffff1673ffffffffffffffffffffffffffffffffffffffff168152602001908152602001600020600084815260200190815260200160002081905550505050565b6131ac6132ce565b73ffffffffffffffffffffffffffffffffffffffff166131ca6114aa565b73ffffffffffffffffffffffffffffffffffffffff1614613220576040517f08c379a000000000000000000000000000000000000000000000000000000000815260040161321790613b48565b60405180910390fd5b600073ffffffffffffffffffffffffffffffffffffffff168173ffffffffffffffffffffffffffffffffffffffff161415613290576040517f08c379a000000000000000000000000000000000000000000000000000000000815260040161328790613ae8565b60405180910390fd5b613299816132d6565b50565b60045481565b600081836132b09190613c38565b905092915050565b600081836132c69190613c8e565b905092915050565b600033905090565b60008060009054906101000a900473ffffffffffffffffffffffffffffffffffffffff169050816000806101000a81548173ffffffffffffffffffffffffffffffffffffffff021916908373ffffffffffffffffffffffffffffffffffffffff1602179055508173ffffffffffffffffffffffffffffffffffffffff168173ffffffffffffffffffffffffffffffffffffffff167f8be0079c531659141344cd1fd0a4f28419497f9722a3daafe3b4186f6b6457e060405160405180910390a35050565b600081836133a89190613ce8565b905092915050565b6000813590506133bf81613e78565b92915050565b6000815190506133d481613e8f565b92915050565b6000813590506133e981613ea6565b92915050565b6000813590506133fe81613ebd565b92915050565b60008135905061341381613ecd565b92915050565b60006020828403121561342b57600080fd5b6000613439848285016133b0565b91505092915050565b6000806040838503121561345557600080fd5b6000613463858286016133b0565b9250506020613474858286016133da565b9150509250929050565b60006020828403121561349057600080fd5b600061349e848285016133c5565b91505092915050565b6000602082840312156134b957600080fd5b60006134c7848285016133da565b91505092915050565b600080604083850312156134e357600080fd5b60006134f1858286016133da565b9250506020613502858286016133b0565b9150509250929050565b6000806040838503121561351f57600080fd5b600061352d858286016133da565b925050602061353e858286016133ef565b9150509250929050565b60008060006060848603121561355d57600080fd5b600061356b868287016133ef565b935050602061357c868287016133da565b925050604061358d86828701613404565b9150509250925092565b600080600080608085870312156135ad57600080fd5b60006135bb878288016133ef565b94505060206135cc878288016133da565b93505060406135dd87828801613404565b92505060606135ee87828801613404565b91505092959194509250565b60006020828403121561360c57600080fd5b600061361a84828501613404565b91505092915050565b6000806040838503121561363657600080fd5b600061364485828601613404565b9250506020613655858286016133da565b9150509250929050565b600061366b8383613946565b60e08301905092915050565b61368081613d1c565b82525050565b61368f81613d1c565b82525050565b60006136a082613bf3565b6136aa8185613c0b565b93506136b583613be3565b8060005b838110156136e65781516136cd888261365f565b97506136d883613bfe565b9250506001810190506136b9565b5085935050505092915050565b6136fc81613d3a565b82525050565b61370b81613d3a565b82525050565b61371a81613d81565b82525050565b600061372d602683613c27565b91507f4f776e61626c653a206e6577206f776e657220697320746865207a65726f206160008301527f64647265737300000000000000000000000000000000000000000000000000006020830152604082019050919050565b6000613793601283613c27565b91507f496e7375666669656e742062616c616e636500000000000000000000000000006000830152602082019050919050565b60006137d3601483613c27565b91507f546f6b656e20646f6573206e6f742065786973740000000000000000000000006000830152602082019050919050565b6000613813602083613c27565b91507f4f776e61626c653a2063616c6c6572206973206e6f7420746865206f776e65726000830152602082019050919050565b6000613853601483613c27565b91507f696e73756666696369656e742062616c616e63650000000000000000000000006000830152602082019050919050565b6000613893601683613c27565b91507f42616c616e6365206e6f742073756666696369656e74000000000000000000006000830152602082019050919050565b60006138d3600083613c1c565b9150600082019050919050565b60006138ed602983613c27565b91507f596f7520646f206e6f74206861766520656e6f7567682045544820746f20636f60008301527f76657220747261646500000000000000000000000000000000000000000000006020830152604082019050919050565b60e08201600082015161395c60008501826139d4565b50602082015161396f6020850182613677565b5060408201516139826040850182613711565b50606082015161399560608501826136f3565b5060808201516139a860808501826139d4565b5060a08201516139bb60a08501826139d4565b5060c08201516139ce60c08501826139d4565b50505050565b6139dd81613d77565b82525050565b6139ec81613d77565b82525050565b60006139fd826138c6565b9150819050919050565b6000602082019050613a1c6000830184613686565b92915050565b6000606082019050613a376000830186613686565b613a446020830185613686565b613a5160408301846139e3565b949350505050565b6000604082019050613a6e6000830185613686565b613a7b60208301846139e3565b9392505050565b60006020820190508181036000830152613a9c8184613695565b905092915050565b6000602082019050613ab96000830184613702565b92915050565b6000604082019050613ad46000830185613702565b613ae16020830184613686565b9392505050565b60006020820190508181036000830152613b0181613720565b9050919050565b60006020820190508181036000830152613b2181613786565b9050919050565b60006020820190508181036000830152613b41816137c6565b9050919050565b60006020820190508181036000830152613b6181613806565b9050919050565b60006020820190508181036000830152613b8181613846565b9050919050565b60006020820190508181036000830152613ba181613886565b9050919050565b60006020820190508181036000830152613bc1816138e0565b9050919050565b6000602082019050613bdd60008301846139e3565b92915050565b6000819050602082019050919050565b600081519050919050565b6000602082019050919050565b600082825260208201905092915050565b600081905092915050565b600082825260208201905092915050565b6000613c4382613d77565b9150613c4e83613d77565b9250827fffffffffffffffffffffffffffffffffffffffffffffffffffffffffffffffff03821115613c8357613c82613e06565b5b828201905092915050565b6000613c9982613d77565b9150613ca483613d77565b9250817fffffffffffffffffffffffffffffffffffffffffffffffffffffffffffffffff0483118215151615613cdd57613cdc613e06565b5b828202905092915050565b6000613cf382613d77565b9150613cfe83613d77565b925082821015613d1157613d10613e06565b5b828203905092915050565b6000613d2782613d57565b9050919050565b60008115159050919050565b6000819050919050565b6000819050613d5282613e64565b919050565b600073ffffffffffffffffffffffffffffffffffffffff82169050919050565b6000819050919050565b6000613d8c82613d44565b9050919050565b6000613d9e82613d77565b91506000821415613db257613db1613e06565b5b600182039050919050565b6000613dc882613d77565b91507fffffffffffffffffffffffffffffffffffffffffffffffffffffffffffffffff821415613dfb57613dfa613e06565b5b600182019050919050565b7f4e487b7100000000000000000000000000000000000000000000000000000000600052601160045260246000fd5b7f4e487b7100000000000000000000000000000000000000000000000000000000600052602160045260246000fd5b60028110613e7557613e74613e35565b5b50565b613e8181613d1c565b8114613e8c57600080fd5b50565b613e9881613d2e565b8114613ea357600080fd5b50565b613eaf81613d3a565b8114613eba57600080fd5b50565b60028110613eca57600080fd5b50565b613ed681613d77565b8114613ee157600080fd5b5056fea264697066735822122057b11ae692bcca6fc8ca1b075358e34a57597396a258545e05d3876921c0d90464736f6c63430008000033",
  "immutableReferences": {},
  "source": "pragma solidity ^0.8.0;\r\npragma experimental ABIEncoderV2;\r\n\r\nimport \"../contracts/wallet.sol\";\r\n\r\ncontract Dex is Wallet {\r\nusing SafeMath for uint256;\r\n    \r\n    enum Side {\r\n        Buy, //0\r\n        Sell //1\r\n    }\r\n\r\n    //order.side = Side.Buy\r\n  \r\n\r\n    struct Order {\r\n        uint id;\r\n        address trader;\r\n        Side side;\r\n        bytes32 ticker;\r\n        uint amount;\r\n        uint price; //limit orders\r\n        uint filled;\r\n    }\r\n\r\n    uint public nextOrderID = 0;\r\n\r\n    mapping(bytes32 => mapping(uint => Order[])) orderBook;\r\n\r\n    function getTokenList() public view returns(uint256){\r\n        return TokenList.length;\r\n    }\r\n\r\n    function getOrderBook(bytes32 ticker, Side side) view public returns(Order[] memory){\r\n        return orderBook[ticker][uint(side)];\r\n    }\r\n\r\n    function createLimitOrder( Side side, bytes32 ticker, uint amount, uint price) public {\r\n\r\n        if(side == Side.Buy){\r\n            require(balances[msg.sender][\"ETH\"] >= amount.mul(price));\r\n        }\r\n        else if(side == Side.Sell){\r\n            require(balances[msg.sender][ticker] >= amount);\r\n        }\r\n        Order[] storage orders = orderBook[ticker][uint(side)];\r\n        orders.push( Order(nextOrderID, msg.sender, side, ticker, amount, price, 0) );\r\n\r\n        //Bubble Loop Algorithm to sort Buy and Sell orders\r\n        uint i = orders.length > 0 ? orders.length -1 : 0;\r\n\r\n        if(side == Side.Buy){\r\n           while(i > 0){\r\n               if(orders[i-1].price > orders[i].price){\r\n                   break;\r\n               }\r\n               Order memory orderToMove = orders[i-1];\r\n               orders[i - 1] = orders[i];\r\n               orders[i] = orderToMove;\r\n               i--;\r\n           }\r\n        }\r\n\r\n        else if(side == Side.Sell){\r\n            while(i > 0){\r\n               if(orders[i - 1].price < orders[i].price){\r\n                   break;\r\n               }\r\n               Order memory orderToMove = orders[i-1];\r\n               orders[i - 1] = orders[i];\r\n               orders[i] = orderToMove;\r\n               i--;\r\n           }\r\n        }\r\n        nextOrderID++;\r\n}\r\n\r\n     function createMarketOrder( Side side, bytes32 ticker, uint amount)public {\r\n         if(side == Side.Sell){\r\n            require(balances[msg.sender][ticker] >= amount, \"insufficient balance\");\r\n         }\r\n        \r\n        uint orderBookSide;\r\n        if(side == Side.Buy){\r\n            orderBookSide = 1;\r\n        }else{\r\n            orderBookSide = 0;\r\n        }\r\n\r\n        Order[] storage orders = orderBook[ticker][orderBookSide];\r\n\r\n        uint totalFilled = 0;\r\n\r\n        //this loop will take us into the orderbook\r\n        for(uint i = 0; i < orders.length && totalFilled < amount; i++){\r\n            //how many existing orders can we fill with our new market order\r\n            uint leftToFill = amount.sub(totalFilled);//amount minus totalFilled\r\n            uint availableToFill = orders[i].amount.sub(orders[i].filled); // how much is available in this current order\r\n            uint filled = 0;\r\n            if( availableToFill > leftToFill  ){\r\n                filled = leftToFill; // fill the entire market order\r\n            }else{\r\n                filled = availableToFill; // fill whats available in order[i]\r\n            }\r\n            totalFilled = totalFilled.add(filled);//update totalFilled\r\n            orders[i].filled = orders[i].filled.add(filled);\r\n            uint cost = filled.mul(orders[i].price);\r\n\r\n            if(side == Side.Buy){\r\n                //verfiy the buyer has enough eth to cover trade\r\n                require(balances[msg.sender][\"ETH\"] >= cost, \"You do not have enough ETH to cover trade\");\r\n                //transfer Eth from buyer to seller\r\n                balances[msg.sender][ticker] = balances[msg.sender][ticker].add(filled);\r\n                balances[msg.sender][\"ETH\"] = balances[msg.sender][\"ETH\"].sub(cost);\r\n                //transfer tokens from seller to buyer\r\n                balances[orders[i].trader][ticker] = balances[orders[i].trader][ticker].sub(filled);\r\n                balances[orders[i].trader][\"ETH\"] = balances[orders[i].trader][\"ETH\"].add(cost);\r\n\r\n            }else if(side == Side.Sell){\r\n                //execute the trade\r\n                balances[msg.sender][ticker] = balances[msg.sender][ticker].sub(filled);\r\n                balances[msg.sender][\"ETH\"] = balances[msg.sender][\"ETH\"].add(cost);\r\n    \r\n                balances[orders[i].trader][ticker] = balances[orders[i].trader][ticker].add(filled);\r\n                balances[orders[i].trader][\"ETH\"] = balances[orders[i].trader][\"ETH\"].sub(cost);\r\n            }            \r\n\r\n        }\r\n\r\n            //Loop through order book and remove 100% filled orders\r\n            while( orders.length > 0 && orders[0].filled == orders[0].amount ){\r\n                //removing the top element by overwriting every element with the next element in the list\r\n                for(uint i = 0; i < orders.length -1; i++){\r\n                    orders[i] = orders[i +1];\r\n                }\r\n                orders.pop();\r\n        }\r\n     }\r\n\r\n}",
  "sourcePath": "C:/Users/evanMcGraneTest/Documents/EthereumProgramming/FrankDex/Dex_DApp/contracts/dex.sol",
  "compiler": {
    "name": "solc",
    "version": "0.8.0+commit.c7dfd78e.Emscripten.clang"
  },
  "schemaVersion": "3.3.4",
  "updatedAt": "2021-07-31T11:22:22.436Z",
  "networkType": "ethereum",
  "devdoc": {
    "kind": "dev",
    "methods": {
      "owner()": {
        "details": "Returns the address of the current owner."
      },
      "renounceOwnership()": {
        "details": "Leaves the contract without owner. It will not be possible to call `onlyOwner` functions anymore. Can only be called by the current owner. NOTE: Renouncing ownership will leave the contract without an owner, thereby removing any functionality that is only available to the owner."
      },
      "transferOwnership(address)": {
        "details": "Transfers ownership of the contract to a new account (`newOwner`). Can only be called by the current owner."
      }
    },
    "version": 1
  },
  "userdoc": {
    "kind": "user",
    "methods": {},
    "version": 1
  }
}