{
  "contractName": "Wallet",
  "abi": [
    {
      "anonymous": false,
      "inputs": [
        {
          "indexed": true,
          "internalType": "address",
          "name": "previousOwner",
          "type": "address"
        },
        {
          "indexed": true,
          "internalType": "address",
          "name": "newOwner",
          "type": "address"
        }
      ],
      "name": "OwnershipTransferred",
      "type": "event"
    },
    {
      "inputs": [
        {
          "internalType": "uint256",
          "name": "",
          "type": "uint256"
        }
      ],
      "name": "TokenList",
      "outputs": [
        {
          "internalType": "bytes32",
          "name": "",
          "type": "bytes32"
        }
      ],
      "stateMutability": "view",
      "type": "function"
    },
    {
      "inputs": [
        {
          "internalType": "address",
          "name": "",
          "type": "address"
        },
        {
          "internalType": "bytes32",
          "name": "",
          "type": "bytes32"
        }
      ],
      "name": "balances",
      "outputs": [
        {
          "internalType": "uint256",
          "name": "",
          "type": "uint256"
        }
      ],
      "stateMutability": "view",
      "type": "function"
    },
    {
      "inputs": [],
      "name": "owner",
      "outputs": [
        {
          "internalType": "address",
          "name": "",
          "type": "address"
        }
      ],
      "stateMutability": "view",
      "type": "function"
    },
    {
      "inputs": [],
      "name": "renounceOwnership",
      "outputs": [],
      "stateMutability": "nonpayable",
      "type": "function"
    },
    {
      "inputs": [
        {
          "internalType": "bytes32",
          "name": "",
          "type": "bytes32"
        }
      ],
      "name": "tokenMapping",
      "outputs": [
        {
          "internalType": "bytes32",
          "name": "ticker",
          "type": "bytes32"
        },
        {
          "internalType": "address",
          "name": "tokenAddress",
          "type": "address"
        }
      ],
      "stateMutability": "view",
      "type": "function"
    },
    {
      "inputs": [
        {
          "internalType": "address",
          "name": "newOwner",
          "type": "address"
        }
      ],
      "name": "transferOwnership",
      "outputs": [],
      "stateMutability": "nonpayable",
      "type": "function"
    },
    {
      "inputs": [
        {
          "internalType": "bytes32",
          "name": "ticker",
          "type": "bytes32"
        },
        {
          "internalType": "address",
          "name": "tokenAddress",
          "type": "address"
        }
      ],
      "name": "addToken",
      "outputs": [],
      "stateMutability": "nonpayable",
      "type": "function"
    },
    {
      "inputs": [
        {
          "internalType": "uint256",
          "name": "amount",
          "type": "uint256"
        },
        {
          "internalType": "bytes32",
          "name": "ticker",
          "type": "bytes32"
        }
      ],
      "name": "deposit",
      "outputs": [],
      "stateMutability": "nonpayable",
      "type": "function"
    },
    {
      "inputs": [
        {
          "internalType": "uint256",
          "name": "amount",
          "type": "uint256"
        },
        {
          "internalType": "bytes32",
          "name": "ticker",
          "type": "bytes32"
        }
      ],
      "name": "withdraw",
      "outputs": [],
      "stateMutability": "nonpayable",
      "type": "function"
    },
    {
      "inputs": [],
      "name": "depositEth",
      "outputs": [],
      "stateMutability": "payable",
      "type": "function"
    },
    {
      "inputs": [
        {
          "internalType": "uint256",
          "name": "amount",
          "type": "uint256"
        }
      ],
      "name": "withdrawEth",
      "outputs": [],
      "stateMutability": "nonpayable",
      "type": "function"
    }
  ],
  "bytecode": "0x608060405234801561001057600080fd5b5061002d61002261003260201b60201c565b61003a60201b60201c565b6100fe565b600033905090565b60008060009054906101000a900473ffffffffffffffffffffffffffffffffffffffff169050816000806101000a81548173ffffffffffffffffffffffffffffffffffffffff021916908373ffffffffffffffffffffffffffffffffffffffff1602179055508173ffffffffffffffffffffffffffffffffffffffff168173ffffffffffffffffffffffffffffffffffffffff167f8be0079c531659141344cd1fd0a4f28419497f9722a3daafe3b4186f6b6457e060405160405180910390a35050565b61156e8061010d6000396000f3fe60806040526004361061009c5760003560e01c80638da5cb5b116100645780638da5cb5b1461017a5780639776aacf146101a5578063a8d2021a146101ce578063c311d049146101f7578063c9630cb014610220578063f2fde38b146102495761009c565b806303a53595146100a15780631f14df69146100de578063439370b11461011b578063667cb4ba14610125578063715018a614610163575b600080fd5b3480156100ad57600080fd5b506100c860048036038101906100c39190611014565b610272565b6040516100d591906112b6565b60405180910390f35b3480156100ea57600080fd5b5061010560048036038101906101009190610f4a565b610296565b604051610112919061139a565b60405180910390f35b6101236102bb565b005b34801561013157600080fd5b5061014c60048036038101906101479190610faf565b6103b4565b60405161015a9291906112d1565b60405180910390f35b34801561016f57600080fd5b506101786103f8565b005b34801561018657600080fd5b5061018f610480565b60405161019c919061123b565b60405180910390f35b3480156101b157600080fd5b506101cc60048036038101906101c79190610fd8565b6104a9565b005b3480156101da57600080fd5b506101f560048036038101906101f0919061103d565b6105e4565b005b34801561020357600080fd5b5061021e60048036038101906102199190611014565b61089e565b005b34801561022c57600080fd5b506102476004803603810190610242919061103d565b610ab4565b005b34801561025557600080fd5b50610270600480360381019061026b9190610f21565b610cdd565b005b6002818154811061028257600080fd5b906000526020600020016000915090505481565b6003602052816000526040600020602052806000526040600020600091509150505481565b61033e34600360003373ffffffffffffffffffffffffffffffffffffffff1673ffffffffffffffffffffffffffffffffffffffff16815260200190815260200160002060007f4554480000000000000000000000000000000000000000000000000000000000815260200190815260200160002054610dd590919063ffffffff16565b600360003373ffffffffffffffffffffffffffffffffffffffff1673ffffffffffffffffffffffffffffffffffffffff16815260200190815260200160002060007f4554480000000000000000000000000000000000000000000000000000000000815260200190815260200160002081905550565b60016020528060005260406000206000915090508060000154908060010160009054906101000a900473ffffffffffffffffffffffffffffffffffffffff16905082565b610400610deb565b73ffffffffffffffffffffffffffffffffffffffff1661041e610480565b73ffffffffffffffffffffffffffffffffffffffff1614610474576040517f08c379a000000000000000000000000000000000000000000000000000000000815260040161046b9061135a565b60405180910390fd5b61047e6000610df3565b565b60008060009054906101000a900473ffffffffffffffffffffffffffffffffffffffff16905090565b6104b1610deb565b73ffffffffffffffffffffffffffffffffffffffff166104cf610480565b73ffffffffffffffffffffffffffffffffffffffff1614610525576040517f08c379a000000000000000000000000000000000000000000000000000000000815260040161051c9061135a565b60405180910390fd5b60405180604001604052808381526020018273ffffffffffffffffffffffffffffffffffffffff16815250600160008481526020019081526020016000206000820151816000015560208201518160010160006101000a81548173ffffffffffffffffffffffffffffffffffffffff021916908373ffffffffffffffffffffffffffffffffffffffff16021790555090505060028290806001815401808255809150506001900390600052602060002001600090919091909150555050565b80600073ffffffffffffffffffffffffffffffffffffffff166001600083815260200190815260200160002060010160009054906101000a900473ffffffffffffffffffffffffffffffffffffffff1673ffffffffffffffffffffffffffffffffffffffff16141561068b576040517f08c379a00000000000000000000000000000000000000000000000000000000081526004016106829061133a565b60405180910390fd5b82600360003373ffffffffffffffffffffffffffffffffffffffff1673ffffffffffffffffffffffffffffffffffffffff168152602001908152602001600020600084815260200190815260200160002054101561071e576040517f08c379a00000000000000000000000000000000000000000000000000000000081526004016107159061137a565b60405180910390fd5b61078183600360003373ffffffffffffffffffffffffffffffffffffffff1673ffffffffffffffffffffffffffffffffffffffff168152602001908152602001600020600085815260200190815260200160002054610eb790919063ffffffff16565b600360003373ffffffffffffffffffffffffffffffffffffffff1673ffffffffffffffffffffffffffffffffffffffff1681526020019081526020016000206000848152602001908152602001600020819055506001600083815260200190815260200160002060010160009054906101000a900473ffffffffffffffffffffffffffffffffffffffff1673ffffffffffffffffffffffffffffffffffffffff1663a9059cbb33856040518363ffffffff1660e01b815260040161084692919061128d565b602060405180830381600087803b15801561086057600080fd5b505af1158015610874573d6000803e3d6000fd5b505050506040513d601f19601f820116820180604052508101906108989190610f86565b50505050565b80600360003373ffffffffffffffffffffffffffffffffffffffff1673ffffffffffffffffffffffffffffffffffffffff16815260200190815260200160002060007f45544800000000000000000000000000000000000000000000000000000000008152602001908152602001600020541015610951576040517f08c379a00000000000000000000000000000000000000000000000000000000081526004016109489061131a565b60405180910390fd5b6109d481600360003373ffffffffffffffffffffffffffffffffffffffff1673ffffffffffffffffffffffffffffffffffffffff16815260200190815260200160002060007f4554480000000000000000000000000000000000000000000000000000000000815260200190815260200160002054610eb790919063ffffffff16565b600360003373ffffffffffffffffffffffffffffffffffffffff1673ffffffffffffffffffffffffffffffffffffffff16815260200190815260200160002060007f45544800000000000000000000000000000000000000000000000000000000008152602001908152602001600020819055503373ffffffffffffffffffffffffffffffffffffffff1681604051610a6c90611226565b60006040518083038185875af1925050503d8060008114610aa9576040519150601f19603f3d011682016040523d82523d6000602084013e610aae565b606091505b50505050565b80600073ffffffffffffffffffffffffffffffffffffffff166001600083815260200190815260200160002060010160009054906101000a900473ffffffffffffffffffffffffffffffffffffffff1673ffffffffffffffffffffffffffffffffffffffff161415610b5b576040517f08c379a0000000000000000000000000000000000000000000000000000000008152600401610b529061133a565b60405180910390fd5b6001600083815260200190815260200160002060010160009054906101000a900473ffffffffffffffffffffffffffffffffffffffff1673ffffffffffffffffffffffffffffffffffffffff166323b872dd3330866040518463ffffffff1660e01b8152600401610bce93929190611256565b602060405180830381600087803b158015610be857600080fd5b505af1158015610bfc573d6000803e3d6000fd5b505050506040513d601f19601f82011682018060405250810190610c209190610f86565b50610c8483600360003373ffffffffffffffffffffffffffffffffffffffff1673ffffffffffffffffffffffffffffffffffffffff168152602001908152602001600020600085815260200190815260200160002054610dd590919063ffffffff16565b600360003373ffffffffffffffffffffffffffffffffffffffff1673ffffffffffffffffffffffffffffffffffffffff168152602001908152602001600020600084815260200190815260200160002081905550505050565b610ce5610deb565b73ffffffffffffffffffffffffffffffffffffffff16610d03610480565b73ffffffffffffffffffffffffffffffffffffffff1614610d59576040517f08c379a0000000000000000000000000000000000000000000000000000000008152600401610d509061135a565b60405180910390fd5b600073ffffffffffffffffffffffffffffffffffffffff168173ffffffffffffffffffffffffffffffffffffffff161415610dc9576040517f08c379a0000000000000000000000000000000000000000000000000000000008152600401610dc0906112fa565b60405180910390fd5b610dd281610df3565b50565b60008183610de391906113d1565b905092915050565b600033905090565b60008060009054906101000a900473ffffffffffffffffffffffffffffffffffffffff169050816000806101000a81548173ffffffffffffffffffffffffffffffffffffffff021916908373ffffffffffffffffffffffffffffffffffffffff1602179055508173ffffffffffffffffffffffffffffffffffffffff168173ffffffffffffffffffffffffffffffffffffffff167f8be0079c531659141344cd1fd0a4f28419497f9722a3daafe3b4186f6b6457e060405160405180910390a35050565b60008183610ec59190611427565b905092915050565b600081359050610edc816114dc565b92915050565b600081519050610ef1816114f3565b92915050565b600081359050610f068161150a565b92915050565b600081359050610f1b81611521565b92915050565b600060208284031215610f3357600080fd5b6000610f4184828501610ecd565b91505092915050565b60008060408385031215610f5d57600080fd5b6000610f6b85828601610ecd565b9250506020610f7c85828601610ef7565b9150509250929050565b600060208284031215610f9857600080fd5b6000610fa684828501610ee2565b91505092915050565b600060208284031215610fc157600080fd5b6000610fcf84828501610ef7565b91505092915050565b60008060408385031215610feb57600080fd5b6000610ff985828601610ef7565b925050602061100a85828601610ecd565b9150509250929050565b60006020828403121561102657600080fd5b600061103484828501610f0c565b91505092915050565b6000806040838503121561105057600080fd5b600061105e85828601610f0c565b925050602061106f85828601610ef7565b9150509250929050565b6110828161145b565b82525050565b61109181611479565b82525050565b60006110a46026836113c0565b91507f4f776e61626c653a206e6577206f776e657220697320746865207a65726f206160008301527f64647265737300000000000000000000000000000000000000000000000000006020830152604082019050919050565b600061110a6012836113c0565b91507f496e7375666669656e742062616c616e636500000000000000000000000000006000830152602082019050919050565b600061114a6014836113c0565b91507f546f6b656e20646f6573206e6f742065786973740000000000000000000000006000830152602082019050919050565b600061118a6020836113c0565b91507f4f776e61626c653a2063616c6c6572206973206e6f7420746865206f776e65726000830152602082019050919050565b60006111ca6016836113c0565b91507f42616c616e6365206e6f742073756666696369656e74000000000000000000006000830152602082019050919050565b600061120a6000836113b5565b9150600082019050919050565b611220816114a3565b82525050565b6000611231826111fd565b9150819050919050565b60006020820190506112506000830184611079565b92915050565b600060608201905061126b6000830186611079565b6112786020830185611079565b6112856040830184611217565b949350505050565b60006040820190506112a26000830185611079565b6112af6020830184611217565b9392505050565b60006020820190506112cb6000830184611088565b92915050565b60006040820190506112e66000830185611088565b6112f36020830184611079565b9392505050565b6000602082019050818103600083015261131381611097565b9050919050565b60006020820190508181036000830152611333816110fd565b9050919050565b600060208201905081810360008301526113538161113d565b9050919050565b600060208201905081810360008301526113738161117d565b9050919050565b60006020820190508181036000830152611393816111bd565b9050919050565b60006020820190506113af6000830184611217565b92915050565b600081905092915050565b600082825260208201905092915050565b60006113dc826114a3565b91506113e7836114a3565b9250827fffffffffffffffffffffffffffffffffffffffffffffffffffffffffffffffff0382111561141c5761141b6114ad565b5b828201905092915050565b6000611432826114a3565b915061143d836114a3565b9250828210156114505761144f6114ad565b5b828203905092915050565b600061146682611483565b9050919050565b60008115159050919050565b6000819050919050565b600073ffffffffffffffffffffffffffffffffffffffff82169050919050565b6000819050919050565b7f4e487b7100000000000000000000000000000000000000000000000000000000600052601160045260246000fd5b6114e58161145b565b81146114f057600080fd5b50565b6114fc8161146d565b811461150757600080fd5b50565b61151381611479565b811461151e57600080fd5b50565b61152a816114a3565b811461153557600080fd5b5056fea2646970667358221220e8c9c171b419c18d5c48411591a1d553a42bd5dff30a757439964348497ca21264736f6c63430008000033",
  "immutableReferences": {},
  "source": "pragma solidity ^0.8.0;\r\n\r\nimport \"../node_modules/@openzeppelin/contracts/token/ERC20/IERC20.sol\";\r\nimport \"../node_modules/@openzeppelin/contracts/utils/math/SafeMath.sol\";\r\nimport \"../node_modules/@openzeppelin/contracts/access/Ownable.sol\";\r\n\r\ncontract Wallet is Ownable{\r\n    using SafeMath for uint256;\r\n\r\n    struct Token {\r\n        bytes32 ticker;  \r\n        address tokenAddress;\r\n    }\r\n    mapping(bytes32 => Token) public tokenMapping;\r\n    bytes32[] public TokenList;\r\n    mapping(address => mapping(bytes32 => uint256)) public balances;\r\n\r\n    modifier tokenExists(bytes32 ticker) {\r\n        require(tokenMapping[ticker].tokenAddress != address(0), \"Token does not exist\");\r\n        _;\r\n    }\r\n\r\n    function addToken(bytes32 ticker, address tokenAddress) onlyOwner external {\r\n        //save the ticker to our mapping, be equal to new token with a ticker and address\r\n        tokenMapping[ticker] = Token(ticker, tokenAddress);\r\n        //just want a list of all the ID's\r\n        TokenList.push(ticker);\r\n    }\r\n\r\n    function deposit(uint amount, bytes32 ticker) tokenExists(ticker) external{\r\n        //transfer from msg.sender to us\r\n        IERC20(tokenMapping[ticker].tokenAddress).transferFrom(msg.sender, address(this), amount);\r\n        balances[msg.sender][ticker] = balances[msg.sender][ticker].add(amount);\r\n    }\r\n\r\n    function withdraw(uint amount, bytes32 ticker) tokenExists(ticker) external{\r\n        //make sure the token exists\r\n        require(balances[msg.sender][ticker] >= amount, \"Balance not sufficient\");\r\n        //adjust the balances before\r\n        balances[msg.sender][ticker] = balances[msg.sender][ticker].sub(amount);\r\n        //input the address (token address for the ticker) and transfer from us to the msg.sender \r\n        //msg.sender is the rightfull owner of the tokens\r\n        IERC20(tokenMapping[ticker].tokenAddress).transfer(msg.sender, amount);\r\n    }\r\n\r\n    function depositEth() payable external {\r\n        balances[msg.sender][bytes32(\"ETH\")] = balances[msg.sender][bytes32(\"ETH\")].add(msg.value);\r\n    }\r\n    \r\n    function withdrawEth(uint amount) external {\r\n        require(balances[msg.sender][bytes32(\"ETH\")] >= amount,'Insuffient balance'); \r\n        balances[msg.sender][bytes32(\"ETH\")] = balances[msg.sender][bytes32(\"ETH\")].sub(amount);\r\n        msg.sender.call{value:amount}(\"\");\r\n    }\r\n\r\n}",
  "sourcePath": "C:\\Users\\evanMcGraneTest\\Documents\\EthereumProgramming\\FrankDex\\Dex_DApp\\contracts\\wallet.sol",
  "compiler": {
    "name": "solc",
    "version": "0.8.0+commit.c7dfd78e.Emscripten.clang"
  },
  "schemaVersion": "3.3.4",
  "updatedAt": "2021-07-31T11:22:16.846Z",
  "devdoc": {
    "kind": "dev",
    "methods": {
      "owner()": {
        "details": "Returns the address of the current owner."
      },
      "renounceOwnership()": {
        "details": "Leaves the contract without owner. It will not be possible to call `onlyOwner` functions anymore. Can only be called by the current owner. NOTE: Renouncing ownership will leave the contract without an owner, thereby removing any functionality that is only available to the owner."
      },
      "transferOwnership(address)": {
        "details": "Transfers ownership of the contract to a new account (`newOwner`). Can only be called by the current owner."
      }
    },
    "version": 1
  },
  "userdoc": {
    "kind": "user",
    "methods": {},
    "version": 1
  }
}